:020000040000FA
:04000000B201E4283D
:08000800FD00030E8301FE0060
:100010000A08FF0001308A001629A2008316861103
:1000200083120930A30003101C20A20CA30B142878
:1000300003141C200314DF28031821280000861154
:100040002328861523280030A1000F309C28640047
:100050000C1E272899000314DF28A501A400B3175C
:100060002730A300103040200330A300E8304020A8
:10007000A30164304020A3010A30402024084B280B
:10008000A2002508A1002408A000C3202008031D09
:10009000B313B31B0800303EA7000710871087106A
:1000A00083160710871087100F30860583122708E4
:1000B000B21878283A30A100FC309C203330A600DA
:1000C0008C201030A10068309C208C2064309B2054
:1000D0008C202230A6008C20283077200C3077200E
:1000E0000130772006307720B214270878283214A0
:1000F000A600321C86288710033C031C8B288B200B
:100100000730A100D0309C20031408003214FE3CBC
:100110000319DF288714321C321007140F308605AC
:100120002608F03986040710A60E32188C283230C3
:100130009B2003140800A101FC3EA000A109031CA0
:10014000A728FF300000A0070318A228A00764001A
:10015000A10FA1280800A2000130B328A200063098
:10016000B328A2000530A80023082102031DBA28E5
:100170002208200204300318013003190230280538
:10018000031DFF30DF28A501A4011030A600210DBA
:10019000A40DA50D2208A4022308031C230FA50209
:1001A0000318D9282208A40723080318230FA5073A
:1001B0000310A00DA10DA60BC7282008DF2883136C
:1001C00003138312640008008316813099002030E5
:1001D0009800831290309800C0309F008A110A1254
:1001E00095228A110A128B228A110A12C6228316BC
:1001F0004F308100831207168316071283128A116B
:100200000A1216236430BA00BB0183168C168312BF
:1002100003178C120313C0308B006430BA00BB018B
:100220008030950096018A110A123C2983138715A4
:10023000C03084006400F801C20164000A30F90093
:100240008C1A2929FA30F700F70B2429F90B2029F9
:1002500030291A08FA007A088000F80A840A1D2951
:10026000F80803193529C21787117F088A007E0E06
:100270008300FD0E7D0E0900FE308A014C20013006
:100280008A014C2048308A014C2065308A014C207C
:100290006C308A014C206C308A014C206F308A010E
:1002A0004C20FE308A014C20C0308A014C20503056
:1002B0008A014C2057308A014C204D308A014C2055
:1002C00020308A014C203D308A014C203D308A018B
:1002D0004C2020308A014C2015088A012D204E30F8
:1002E0008A010D206F308A010D2074308A010D20A3
:1002F00020308A010D2066308A010D206F308A017E
:100300000D2075308A010D206E308A010D20643079
:100310008A010D2020308A010D204C308A010D20E9
:100320006F308A010D206F308A010D2070308A01F4
:100330000D2021308A010D2021308A010D200D3041
:100340008A010D200A308A010D2064008A110A12E8
:100350000518AF29FF309500FF308A01272064007F
:100360008A110A128518B9290130950001308A01D5
:10037000272064008A110A120519C32980309500CC
:1003800080308A0127208A110A124D226400013030
:100390004A028A110A12031C102A4C308A010D20CD
:1003A0004F308A010D204F308A010D2050308A01D4
:1003B0000D2020308A010D2031308A010D2020309F
:1003C0008A010D200D308A010D200A308A010D208E
:1003D0008A110A1216233A08A0003B08A100A301C3
:1003E00000308A01AE208A110A12031DFD29013056
:1003F000BA020030031C013EBB02A001A1013B0870
:10040000A3003A088A01B1208A110A12031D102A9A
:100410006430BA00BB01083085068316851183124B
:1004200064008A110A12C21F4B2AC2138316C21318
:1004300083121812831618128312181683161812B4
:1004400064000130831278028A110A12031C4B2ABD
:10045000C401FF307807BC00FF300318013EBD0027
:100460004408A000A1013D08A3003C088A01AB207C
:100470008A110A12031D4B2A4408C03E840000085A
:10048000BE003E0895003E088A012720C40A8A1152
:100490000A12031D292A8A013C29CA0164008A1113
:1004A0000A120C1C552A0130CA000D308A010D2099
:1004B0000A308A010D2066308A010D206F308A01D2
:1004C0000D2075308A010D206E308A010D206430B8
:1004D0008A010D2020308A010D2054308A010D2020
:1004E0004D308A010D2052308A010D2031308A01B1
:1004F0000D2049308A010D2046308A010D20003040
:100500000C1801308A010D200D308A010D200A30AF
:100510008A010D2008000C309700950107309200E9
:100520008316FF3092008312080083160317880198
:1005300003132730850086010317890103138030D8
:100540008700871707130D3083128A010D200A30A8
:100550008A010D2069308A010D206E308A010D203C
:1005600069308A010D2074308A010D2020308A0103
:100570000D2049308A010D204F308A010D200D30A9
:100580008A010D200A308A010D2008009030980061
:100590008316243098000830990002309A0003171F
:1005A00087150D30831203138A010D200A308A014A
:1005B0000D2045308A010D2055308A010D20533021
:1005C0008A010D2041308A010D2052308A010D2010
:1005D00054308A010D2020308A010D2049308A01D3
:1005E0000D206E308A010D2069308A010D20743093
:1005F0008A010D2069308A010D2061308A010D20A9
:100600006C308A010D2069308A010D207A308A0110
:100610000D2065308A010D2064308A010D200D30D7
:100620008A010D200A308A010D2008002530900033
:10063000F6308F0040308E000C1083160C108312A1
:100640001014831610108312080063008A01252BF2
:02400E009A23F3
:02401000FF3E71
:00000001FF
